:100000000C94B2010C94EA010C94EA010C94EA01FC
:100010000C94EA010C94EA010C94EA010C94EA01B4
:100020000C94EA010C94EA010C94001C0C94D41C6E
:100030000C94E4160C94EA010C94EA010C94EA0185
:100040000C94EA010C94EA010C94EA010C94EA0184
:100050000C94EA010C946B170C94EA010C94EA01DD
:100060000C94EA010C94EA010C94EA010C94EA0164
:100070000C94EA010C94EA010C94EA010C94EA0154
:100080000C94EA010C94EA010C94EA010C94EA0144
:100090000C94EA010C94EA010C94EA010C94EA0134
:1000A0000C94EA010C94EA010C94EA012B00140070
:1000B0001A000800150017001C0018000C001200A0
:1000C00013002A00E10004001600070009000A00DE
:1000D0000B000D000E000F0033003400E0001D0087
:1000E0001B00060019000500110010003600370043
:1000F00038002900000000000000E20001512C003F
:1001000028000251E3000000000000002B001E0048
:100110001F002000210022002300240025002600CB
:1001200027002A00E100000000000000A8004600AF
:10013000A90041004200430044004500E0000000E7
:100140004A004B004E004D00AA0000005000520033
:1001500051004F00000000000000E20001512C009F
:1001600028000351290001000100010035001E0292
:100170001F0220022102220223022402250226025B
:1001800027024C002B003A003B003C003D003E00A3
:100190003F002D002E002F0030003100E100400014
:1001A000410042004300440045002900360037006A
:1001B00038002A00000000000000E20003512C007B
:1001C000280002512900000000000000010000008A
:1001D000000000000000000000000000000000001F
:1001E000000000000100000000000000000000000E
:1001F00000000000000000000000000001000000FE
:1002000000000000000000000000000000000000EE
:100210000000000001000100010001000351010085
:10022000010003510100010001000100140343001B
:100230006F0072006E0065006C006900750073004D
:1002400000001403590075007300680061006B0022
:100250006F0062006F0000000403090409023B0004
:10026000020100A0FA0904000001030101000921B4
:100270001101000122400007058103080001090463
:1002800001000103000000092111010001227B008F
:10029000070582032000011201000200000008652A
:1002A00032050001000102000105010902A10185DA
:1002B000020901A100050919012908150025019568
:1002C00008750181020501093009311581257F95E5
:1002D000027508810609381581257F950175088109
:1002E00006050C0A38021581257F950175088106DF
:1002F000C0C005010980A101850319012AB70015B5
:100300000126B700950175108100C0050C0901A1F7
:1003100001850419012AA002150126A00295017584
:10032000108100C005010906A101050719E029E7B0
:100330001500250195087501810295017508810157
:100340000507190029FF150026FF0095067508818D
:10035000000508190129059505750191029501759A
:10036000039101C011241FBECFEFDAE0DEBFCDBF85
:1003700004B603FE18C08091590290915A02A091D0
:100380005B02B0915C028730904BA740B04B59F4B0
:100390001092590210925A0210925B0210925C0263
:1003A000E0E0F8E3099511E0A0E0B1E0E0EAFEE367
:1003B00002C005900D92AA38B107D9F722E0AAE849
:1003C000B1E001C01D92A935B207E1F70E94041106
:1003D0000C94381F0C94000081E0089581E008958A
:1003E0000E94EE01089508950E94F3010895A5E08A
:1003F000B0E0EDEFF1E00C94A41E49835A833091F4
:10040000910189819A81311119C0662399F02223C3
:1004100089F00E94EA07182F682F89819A810E942B
:10042000C60769817A81812F0E94690E2596E3E0D3
:100430000C94C01E0E94D807182FF3CF0E94EA0721
:1004400069817A81F1CFFC01262F4081518162813F
:10045000738184810E94F701089581E00895CF930C
:10046000DF93EC0160E00E942302BE010E94F401D0
:10047000DF91CF9108950E94A90F08950E94AD0FBA
:10048000089508950E9491060E9441022FEF84E38F
:100490009CE0215080409040E1F700C000000895AA
:1004A0000E9442020E948F1708950E9442020E94F9
:1004B000B31708950F931F93CF93DF938C0161E0DF
:1004C0000E942302EC01B8010E94F001811106C0D4
:1004D00080E0DF91CF911F910F910895B801CE0177
:1004E0000E9491158823A1F3B801CE010E949513B3
:1004F000882371F3B801CE010E940315882341F3CC
:10050000F8018281882361F0CB35FDE5DF0701F139
:1005100058F4C115ECE5DE0791F0CF3DDC4591F0D4
:10052000C8010E94EC01D5CFCD358DE5D80769F023
:1005300090F0C83ADD45A1F70E945502C9CF0E944C
:100540005002C6CF0E94A40CF7CF0E94E20BE8CF66
:100550000E94EC0BE5CF0E94F00BE2CF0E94C01688
:100560000E94CB0208950E94CF020E94C5160895F2
:1005700008950E94B802089581E008950E94BC0287
:1005800008950895CF93C82F0E94B9028C2F0E941E
:10059000BE02CF91089580E00E94C20208950E9499
:1005A000ED150E94C2020895CF930E94ED15C82F49
:1005B00080918C018C1779F0C0938C010E945017A8
:1005C00060938D0170938E0180938F0190939001C1
:1005D0008C2F0E94C202CF910895ABE0B0E0E3EF10
:1005E000F2E00C94A51E4F83588769877A878B8722
:1005F00061110E942D0B1E821D8285E0FE0137963F
:10060000DE01119601900D928A95E1F78C819D8112
:10061000892B61F449815A816B817C818D819E8116
:100620000E94560A2B96E2E00C94C11E89819A81A1
:1006300089238F3F79F3CE0101960E942D0281110B
:10064000E9CFF0CFFC01808191810E941C080895C0
:10065000CF93C82F8823C9F08238C9F40E94ED15C2
:1006600081FD13C089E30E94E50A0E944E0B2FEF23
:1006700087EE93E0215080409040E1F700C00000F9
:1006800089E30E94ED0A0E944E0BCF9108958338B2
:10069000A1F40E94ED1580FDF8CF83E50E94E50AE4
:1006A0000E944E0B2FEF81EE94E02150804090404D
:1006B000E1F700C0000083E5E4CF8438A1F40E9494
:1006C000ED1582FDE2CF87E40E94E50A0E944E0B01
:1006D0002FEF81EE94E0215080409040E1F700C080
:1006E000000087E4CECF8CEF8C0F813A90F46C2F12
:1006F00080910001909101010E945116882329F0F8
:100700008C2F0E94ED0A0E944E0B8C2F0E94E50A4E
:10071000BACF80E28C0F883048F4C77081E001C006
:10072000880FCA95EAF70E94100BADCFEBE5EC0FEE
:10073000E33040F4F0E0EB5BFE4F808190E00E94FC
:100740001316A3CFE8E5EC0FE73150F4F0E0EE0F1D
:10075000FF1FE95EFE4F808191810E94291695CF8F
:10076000CD3E08F492CF8C2F0E9488110E945B121C
:100770008CCF882309F455C0823879F40E94ED1596
:1007800081FF4FC089E30E94E50A0E944E0B89E376
:100790000E94ED0A0E944E0B0895833859F40E947E
:1007A000ED1580FF3EC083E50E94E50A0E944E0BD6
:1007B00083E5EECF843859F40E94ED1582FF31C0F5
:1007C00087E40E94E50A0E944E0B87E4E1CF9CEF8C
:1007D000980F913AE8F290E2980F983050F48770B1
:1007E00091E001C0990F8A95EAF7892F0E94160BB4
:1007F000D1CF9BE5980F933028F490E080E00E94E1
:100800001316089598E5980F973128F490E080E04A
:100810000E94291608958D3E20F00E94E2110E9448
:100820005B1208951F93CF93DF93182FEB010E9463
:100830002803209739F4812F0E94B903DF91CF91CB
:100840001F9108958FE99FE00197F1F700C0000024
:100850002197EFCF70E060E0893311F460E570E03C
:100860000E9412040895882321F00E94100B0E9418
:100870004E0B0895882321F00E94160B0E944E0B08
:100880000895B0E0A0E0E7E4F4E00C949E1E6C0153
:10089000D62FC72FFC011281F580F2949FE0F92238
:1008A0000E94060BE82E8823B9F0E12E1123A1F057
:1008B0008C2F807F803421F080E28D0F8830D0F043
:1008C0008091370282FF16C082E00E94B10B0E9425
:1008D000060B91E0E82EE926BC2EB2948FE0B822F8
:1008E000FBE0FB1508F468C0EB2DF0E0E65CF04E91
:1008F0000C948F1EE12CF0CF0C2F0F70C07F11F0E5
:100900000295007F112399F0002359F080E28D0FAA
:10091000883010F0D11107C0802F0E94100B0E9468
:100920004E0B8D2F41C0802F0E94200BF8CF8D2FB2
:100930000E94B903002309F43FC080E28D0F883084
:1009400010F0D11104C0802F0E94160B03C0802F1D
:100950000E94260B0E944E0B2FC00C2F0F70C07FE1
:10096000C03211F00295007FDD2381F0D13009F40F
:1009700063C0112309F46DC0FF2009F463C0F601C0
:10098000858180FFCECF8F7085835CC080913702D8
:1009900082FD33C0112359F0002329F0802F0E94DB
:1009A000100B0E944E0B80E00E94280305C080E0DF
:1009B0000E94B9030111C7CFEB2DE850FF0B34970C
:1009C00020F40E94ED150E94C202EE2089F00E94E0
:1009D000020B80FD0DC0F60112820E94FC0A0E94EB
:1009E0002407C6010E9451060E94FC0A0E94340797
:1009F000CDB7DEB7E9E00C94BA1E112389F0F110EF
:100A000006C00E94300B802B0E943304D5CF21E01A
:100A1000F212F7CF0E94300B802B0E94370BCCCF05
:100A2000F11006C00E94440B802F0E943A04C4CFEC
:100A300031E0F31609F2F6CF112331F085E08F157E
:100A400008F4BACF802FE0CF94E09F1508F4B4CF1C
:100A5000EBCFFF2049F3D93349F4FFEF27EE33E022
:100A6000F15020403040E1F700C000008D2F0E947F
:100A7000B903A2CF8C2F86958695837069F081305B
:100A800009F09ACF8D2F9C2F9370111102C090E026
:100A900080E00E94291690CF8D2F9C2F937011110A
:100AA00002C090E080E00E94131686CF8D2F1123A4
:100AB00029F00E9488110E945B127ECF0E94E211F1
:100AC000FACF8C2F8370A1F5111176CF4D2F42955F
:100AD00046954770440F440F2D2F2F7030E0042EA1
:100AE00002C0220F331F0A94E2F790E080E0D4FFA7
:100AF00009C08FE090E002C0880F991F4A95E2F785
:100B000080959095C695C695C370822B932BC23065
:100B100049F058F4C13019F00E94F2064DCF0E94FE
:100B2000E9064ACF0E94FB0647CF0E94E60644CF63
:100B30008695112311F08C2F8170882309F43CCF06
:100B40004D2F429546954770440F440F2D2F2F701F
:100B500030E0042E02C0220F331F0A94E2F790E027
:100B600080E0D4FF09C08FE090E002C0880F991F99
:100B70004A95E2F780959095C695C695C370822BED
:100B8000932BC23049F058F4C13019F00E945F072E
:100B900013CF0E94560710CF0E9468070DCF0E9406
:100BA0000A070ACFCF70112329F08C2F0E94240747
:100BB0008D2F2ACF8D2F0E943A048C2F0E9434074C
:100BC000FBCED23F51F160F4D03FB9F0D13F81F07C
:100BD000112309F449C0F110A4CE8C2F8F7121C0CC
:100BE000D33F11F1D43FA1F78091370282FD26C097
:100BF0008C2F8F71112311F314C0112349F084E05D
:100C00008F1508F4D9CE8C2F8F710E944607D4CE51
:100C100095E09F1508F4D0CEF6CF8C2F8F7111116F
:100C2000CDCF0E942407C8CE112329F08C2F8F71BD
:100C30000E941807C1CE0E941307BECE112349F0AF
:100C4000CF718C2F0E94240763E08C2F0E94930B9E
:100C5000B3CE81E00E94B10BE1E0EF1508F0ACCE1D
:100C600082E00E94B10BA8CEF110F5CE8C2F8F71CF
:100C7000A5CF0F931F93CF93DF93EC016881798108
:100C80008A810E9427088C010E9471070E94E50654
:100C9000B801CE010E944104DF91CF911F910F91C5
:100CA0000895CF93DF93EC018B819C81892B29F0F0
:100CB0008881998189238F3F51F4DF91CF910895E5
:100CC000CE010E943906CE010E942F02F6CFCE013E
:100CD0000E945A028111F4CF0E94060B882369F307
:100CE0008A81882351F38091370282FFE6CF82E028
:100CF0000E94B10BE2CF90E080E00E94131690E0DA
:100D000080E00E9429160E942D0B0E944E0B0E942B
:100D100077120E945B1208950E94F50A0E947B06DA
:100D200008950E941D0B0E948C06089592959F7055
:100D3000963091F058F4925F9F70923058F4803F53
:100D400019F030F4883E30F481E008959A5FF4CFD2
:100D5000843FD1F380E00895883EB0F3813FD1F71E
:100D6000F3CFFC0183819481892B29F080819181CB
:100D700089238F3F11F480E00895808191810E9442
:100D80001C080E9496060895A5E0B0E0EAECF6E0A3
:100D90000C94A51E2596E2E00C94C11EA6E0B0E0DE
:100DA000E4EDF6E00C94A51E2696E2E00C94C11E3C
:100DB00008950E94D80608950E94D9069093AD0127
:100DC0008093AC010E947B06089508950E94DC0682
:100DD00008952091AC013091AD01822B932B0E949C
:100DE000DC0608952091AC013091AD01822393235C
:100DF0000E94DC0608952091AC013091AD0182275C
:100E000093270E94DC0608950E94D80608950E9448
:100E1000040708950E9407079093AB018093AA01ED
:100E20000E947B06089590E080E00E940A070895E2
:100E300021E030E0A90102C0440F551F8A95E2F776
:100E4000CA010E940A07089521E030E002C0220F83
:100E5000331F8A95E2F78091AA019091AB01822B12
:100E6000932B0E940A07089521E030E002C0220F70
:100E7000331F8A95E2F7209530958091AA019091D1
:100E8000AB01822393230E940A07089521E030E0FA
:100E900002C0220F331F8A95E2F78091AA01909138
:100EA000AB01822793270E940A0708952091AA0187
:100EB0003091AB01822B932B0E940A070895209159
:100EC000AA013091AB01822393230E940A0708955F
:100ED0002091AA013091AB01822793270E940A0733
:100EE00008950895262F277091E001C0990F2A9543
:100EF000EAF723E0769567952A95E1F7660F771F65
:100F0000660F771FFA01E60FF71F50E040E0682FE9
:100F100070E08191DF0111979B01042E02C036958C
:100F200027950A94E2F7217021952827292328275D
:100F30002C934F5F5F4F4430510559F70895A82F08
:100F4000A77023E0969587952A95E1F7880F991F5A
:100F5000880F991FFB01E80FF91F50E040E080E087
:100F6000219130E00A2E02C0369527950A94E2F7C7
:100F700021703327042E01C0220F0A94EAF7822B36
:100F80004F5F5F4F4430510559F70895262F943035
:100F900070F48C3060F4682F70E08CE0989F600DE6
:100FA000711D112442E951E0822F0E9472070895B9
:100FB000292F943068F48C3058F490E062E971E0A5
:100FC0003CE0239F800D911D11240E949F070895EE
:100FD00080E00895B0E0A0E0E0EFF7E00C949E1E02
:100FE0007C010091AA011091AB018091AC0190911C
:100FF000AD01082B192BCFE0D0E0CC24C394D12C29
:10100000BC2EC6010C2E02C0880F991F0A94E2F76D
:1010100080239123892B49F4219790F7B12C8B2DB4
:10102000CDB7DEB7E9E00C94BA1EB7018C2F0E9451
:10103000840E019789F3F3CFCF93DF93EC010E94E5
:10104000EA07BE010E94840EDF91CF9108951F939D
:10105000CF93DF93EB0190919101992339F0CB016C
:101060000E941C08DF91CF911F910895882369F099
:10107000CB010E94EA07182F682FCE010E94C607F5
:10108000BE01812F0E94840EEDCFCB010E94D807B4
:10109000182FF6CF1F93CF93DF93C091AE0116E0C8
:1010A0008091AF018C1304C0DF91CF911F910895FF
:1010B000D0E01C9FF0011D9FF00D1124E055FE4F64
:1010C0004081518162817381848195810E94CE0625
:1010D0002196C770E5CF4091E0015091E101609108
:1010E000E2017091E3018091E4019091E5010E9499
:1010F000CE0608951F93CF93DF938091E501807F03
:1011000009F049C08091E201882309F444C080912C
:10111000AE01C091AF016091E0017091E101A09139
:10112000E301B091E401D62FD72316E0C81799F157
:1011300090E0109711F0DF3F19F401968770F6CF19
:10114000189F9001199F300D1124F901E055FE4FB1
:1011500041814713F2CF40814613EFCF42814111C5
:10116000ECCF438154814A1B5B0B483C510528F767
:101170008091E5018F7080618093E501F901EB5466
:10118000FE4F80818F708061808380EE91E00E94AD
:1011900051060E944A08DF91CF911F910895A1E165
:1011A000B0E0E5EDF8E00C949D1E8C0185E0F801BF
:1011B000DE011D9601900D928A95E1F7F801E2801B
:1011C00080EEC82E81E0D82E6091E3017091E40199
:1011D0006115710509F44EC19091E0012091E10182
:1011E000892F82238F3F09F445C140815181A3801B
:1011F000B480F090E201F501E61BF70BFF2009F443
:10120000EAC08091E501382F307FE83CF10508F015
:10121000A3C031116DC0FE2C251316C0941314C049
:10122000E11012C08F7080618093E5010E946B080D
:10123000C6010E9451068091E501F80185838F2D3A
:101240006196EAE00C94B91EA114B10429F0842F30
:1012500085238F3F09F027C180E0F82FF170DF2E42
:1012600080FF3CC08091AE012091AF0136E0821337
:1012700015C04D875E878D859E850E941C08292F8D
:1012800022952F702230F0F0243018F59F70F1F085
:10129000F8019581907FD1F4D12C1EC090E0389F49
:1012A000F001399FF00D1124E055FE4F6181651367
:1012B00006C06081641303C06281E6120FC001960C
:1012C0008770D5CF9F7011F0882331F3805E88300E
:1012D00018F3C8010E945106FD2CB1CFEE2009F48D
:1012E000AECF8091E50181608093E501F12CA7CF1D
:1012F000251306C0941304C0F801EE2009F487C03A
:10130000C8010E94B106882319F1EE2009F18091ED
:10131000E501803270F02091E0013091E1013887E1
:101320002F831986BB86AA868C87CE0107960E94DA
:10133000510686E0F801A0EEB1E001900D928A9589
:10134000E1F70E947A080E946B08FF24F39477CF9C
:10135000C8010E945106F9CF311113C07A2DB98A04
:10136000A88A6E2D89890E94C40680EE91E00E94B1
:10137000510686E0F60111928A95E9F70E946B0802
:10138000B5CF25130FC094130DC0E1100BC0F801A9
:101390008583C8010E94510686E0F60111928A9564
:1013A000E9F74DCFC8010E94B106882389F2EE20EB
:1013B00079F28091E501803208F4BBCF2091E00101
:1013C0003091E1013A8329831B82BD82AC828E83F6
:1013D000CE010196ACCFE83CF10508F03EC0FE2CF2
:1013E000EE2009F4B5CF25132AC0941328C08091AC
:1013F000E50180FD1BC0982F907FC1F0F801858327
:10140000903F31F0982F907F905F8F70892B85836C
:10141000C8010E94510686E0F801A0EEB1E00190FB
:101420000D928A95E1F70E946B0809CF86E0F801DA
:10143000A0EEB1E001900D928A95E1F700CFC801CE
:101440000E94B106811175CF8091E5018160809382
:10145000E501C8010E945106F2CE7A2DB98AA88A08
:101460006E2D89890E94C40686E0F60111928A9544
:10147000E9F7D9CFEE2009F46BCFC8010E94B1067D
:10148000F82E882309F464CF86E0F801A0EEB1E0DD
:1014900001900D928A95E1F780EE91E00E9422037F
:1014A0000E947A08C0CF81E08E25D7CEACE0B0E0B4
:1014B000ECE5FAE00C94A41E4F83588769877A877D
:1014C0008B879C87CE0107960E94CF08882369F0FE
:1014D0008A859B85892B39F04F815885842F8523F8
:1014E0008F3F09F06BC016E05FC086E0FE013796C3
:1014F000DE01119601900D928A95E1F78A859B8510
:10150000892B89F388859F8189238F3F61F32091FF
:10151000AF0130E0C9010196877099274091AE0173
:101520004817190671F40E9491061092AF011092AB
:10153000AE0186E0E0EEF1E0DF011D928A95E9F769
:10154000D2CF96E0929FD001939FB00D1124A05569
:10155000BE4FFE01319601900D929A95E1F780936E
:10156000AF010E944A08BFCF819FC001112480555E
:101570009E4F0E94CF088823E9F0E091AE011E9FA4
:10158000F0011124E055FE4F408151816281738149
:10159000848195810E94CE068091AE0190E00196F3
:1015A000877099278093AE018091AE019091AF0131
:1015B0008913DACF2C96E3E00C94C01E69857A85F6
:1015C0008B859C850E94CE068ECF682F809100016E
:1015D000909101010E9487160895682F8091000163
:1015E000909101010E948A160895809100019091C6
:1015F00001010E948D1608958091EE0185958595D3
:10160000859508958091EE01877008959091EE017F
:10161000977081E009F480E008958091F9010895C0
:101620009091F901892B8093F9010895809590910B
:10163000F90198239093F90108951092F901089502
:101640009091F801892B8093F801089580959091ED
:10165000F80198239093F80108951092F8010895E5
:101660008091EF01089508950E94330B08959091A1
:10167000370292FF08C09091EF01981721F08093F4
:10168000EF010E94340B08958091EF01882329F027
:101690001092EF0180E00E94340B0895CF93DF9306
:1016A000E0910001F09101018091F9018083E091C6
:1016B0000001F091010180819091F801892B8083D4
:1016C0009091EF01992381F0E0910001F0910101E7
:1016D0008081892B808380910001909101010E947B
:1016E0003F1681110E94440BC0910001D09101016D
:1016F00048E050E066EE71E0CE010E94E01E892BCA
:1017000059F088E0FE01A6EEB1E001900D928A95B5
:10171000E1F7CE010E94FA15DF91CF910895089567
:101720000E948F0B08959091370292FF11C098E0AC
:10173000899F90011124622B6093EE010E9424077F
:101740008091EE018595859585950E94900B089571
:101750000E94240708951092EE0180E00E94900BF1
:1017600008959091EE01809589238093EE01282FB2
:10177000277091F4282F082E000C330B92171306B4
:1017800059F09091370292FF07C085958595859510
:101790000E9434070E94AB0B08959091370292FB90
:1017A000222720F9281769F080FB92F990933702DD
:1017B00080913602909137020E941E0C82E00E94B6
:1017C000B10B08958091370282FB882780F991E060
:1017D00089270E94CD0B089581E00E94CD0B0895CA
:1017E00080E00E94CD0B08956FEF7FEF90E080E0E6
:1017F0000E94221F089590E080E00E94FE1E21E0DA
:10180000883E9E4F09F020E0822F089582E090E00C
:101810000E94F61E089583E090E00E94F61E08954F
:10182000CF9384E090E00E94F61EC82F82E290E001
:101830000E94F61E982F8C2FCF910895CF93C92F19
:10184000682F84E090E00E94041F6C2F82E290E0F9
:101850000E94041FCF910895AB01BC018FE090E07E
:101860000E94161F0895AB01BC0183E190E00E9425
:10187000161F089560E070E0CB010E94330C0895BC
:1018800060E070E0CB010E942C0C0E943A0C08959D
:1018900068EE7EEF90E080E00E94221F60E082E030
:1018A00090E00E94041F60E083E090E00E94041F2B
:1018B0001092AD011092AC0160E084E090E00E94D3
:1018C000041F64E082E290E00E94041F60E085E073
:1018D00090E00E94041F60E086E090E00E94041FF8
:1018E0006FEF87E090E00E94041F40E050E0BA01F3
:1018F00088E090E00E94161F60E08DE090E00E947A
:10190000041F40E050E0BA0188E190E00E94161FF9
:1019100060E087E190E00E94041F40E050E0BA01DF
:101920008CE190E00E94161F70E060E080E290E0A1
:101930000E94221F40E050E0BA0188E190E00E943E
:10194000161F0E94400C08950E94480C0895682FAD
:101950008EE090E00E94041F08950E94501760934B
:1019600008027093090280930A0290930B0260931D
:101970000402709305028093060290930702089573
:10198000089508950E94C10C089508950E94C50C01
:1019900008958EE69FE00E94E3150E94C00C0E940D
:1019A000C20C089581E008950E94D20C0895089514
:1019B00008950E94D70C0E94D80C08950E948A0FA7
:1019C0000E94C10208950E943B170E9465100E9468
:1019D000DE0C0E94C60C0895AAE0B0E0E2EFFCE045
:1019E0000C949A1E0E947B102CEF822E21E0922EE6
:1019F000640110E0F601E190F1906F01812F0E94E7
:101A0000B00F1F5F143009F449C0E816F90691F3CE
:101A100080910C0281FD0E94B90F0E94D40C782E97
:101A200010E0812F0E94B00F7C01F401A190B190D1
:101A30004F018A159B0561F100E0CC24C394D12CA1
:101A4000AE24BF24C5018C219D21892BC1F07720B4
:101A5000B1F00E831F8321E0C7018C219D21892BCA
:101A600009F420E028870E9444178160782F9A8724
:101A700089874E815F8168858A850E94ED020F5FAC
:101A8000CC0CDD1C0C30F1F6F4013297F182E082CF
:101A90001F5F143031F60E94AD0C22C0E816F90623
:101AA00009F0B6CF0E9444178C018091FA01909101
:101AB000FB0108171907A1F08FEF89838A831B8226
:101AC0000E9444178160782F9D838C8349815A81BD
:101AD0006B818D810E94ED021093FB010093FA014E
:101AE0000E9499120E94D4022A96EDE00C94B61E30
:101AF000CF93DF930E94890EEC01811521E59207B7
:101B000008F042C0811530E5930708F09FC0883E79
:101B1000910530F5803E910508F094C0883A910512
:101B200088F4853A910508F086C08130910509F462
:101B300089C0009709F486C0049708F083C0D0E0FC
:101B4000C0E080C08F3B9105D0F7C85AD0E0CC0FE1
:101B5000DD1FC85BDE4F0990D881C02DD46472C0F0
:101B6000811540E2940750F4C11581E0D80708F0D0
:101B700069C0CD3ED10518F3D06564C0811590448D
:101B8000F0F2DF70D06A5EC0811535E5930718F575
:101B9000811544E5940708F085C0C11583E5D80791
:101BA00008F06CC0C11522E5D20708F462C0CE016E
:101BB0008370992721E030E002C0220F331F8A95FD
:101BC000E2F7C695C69580E2C89FE0011124C22BBA
:101BD000D32BDC6837C0811539E59307A8F481154C
:101BE00048E5940708F063C0C11586E5D80708F0FA
:101BF000A6CF8C2F0E942B0FC82FD0E0DC2FCC2734
:101C0000CC27DF71D0621EC081152AE5920708F447
:101C100053C090568115904208F091CF8D2F8F714F
:101C20000E942B0F90E0982F882788279F719C0196
:101C30002C2BE901E7CFC55AD0E0CA58DE4FC88146
:101C4000D0E0D064CE01DF91CF91089583709927C1
:101C500021E030E002C0220F331F8A95E2F7C695DB
:101C6000C69540E2C49FE0011124C22BD32BDD684E
:101C7000E9CFDC2FCC27C16FD06AE4CFCE018370CF
:101C8000992721E030E002C0220F331F8A95E2F746
:101C9000C695C69540E2C49FE0011124C22BD32B08
:101CA000DA68D0CFD82FCC27C46FD06ACBCFD82F4B
:101CB000CC27C06FD06AC6CF8F700E942B0F34E044
:101CC000D695C7953A95E1F7CF709C2FEC01D06976
:101CD000B9CF972F7430A8F46C3098F470E02CE0F2
:101CE000929F600D711D1124FB0190E3899FE00D0F
:101CF000F11D1124EE0FFF1FE455FF4F85919491C4
:101D0000089580E090E008950E94690E0E94780D89
:101D1000089582389105B9F1B0F48133910509F441
:101D20007DC048F48932910509F46DC08A3291056D
:101D300009F47BC008958533910509F45FC08933A8
:101D4000910509F10895833E9105D9F138F4803E5B
:101D5000910529F1823E910579F10895863E91051C
:101D6000D9F1873E910509F43EC0843E910541F5C5
:101D70002091370221FF24C08091360284FD19C0D2
:101D800087EE90E0089520913602237009F05AC042
:101D90002091370223FF14C089E290E0089520913A
:101DA000360220FD38C03091370230FF09C024FFD1
:101DB00043C090E080E008952091360222FDF7CFE5
:101DC00008952091360222FD3AC03091370230FD4D
:101DD00039C024FFF5CFEDCF2091360223FFF0CF9D
:101DE00024FDE7CFCDCF2091360223FD2EC03091C8
:101DF000370231FFEECF84EE90E008952091360255
:101E000025FFDECFC9CF2091360225FD21C02091CC
:101E1000370223FFD5CF89E390E0D2CF209136025D
:101E200026FFCECF8AE290E008952091360226FF69
:101E3000C7CF81E390E0089583EE90E0089582EEAD
:101E400090E0089580EE90E0089586EE90E0089589
:101E500085E390E008959091360292FF06C0282F06
:101E600028712830F9F4877F846093FF06C0282FFB
:101E700028712831F1F4877E84612091370220FF98
:101E800006C0382F38713830D9F4877F816021FF40
:101E900006C0282F28712831D1F4877E816194FDF6
:101EA000877E0895282F24712430F9F68B7F88606F
:101EB000DCCF282F2471243101F78B7E8861DDCFA0
:101EC000382F3171313019F78E7F8860E0CF282F9D
:101ED0002171213121F78E7E8861E1CF80E0089564
:101EE0000E94F40B08950E947B108FE39CE90197F8
:101EF000F1F700C000000E947B1080E00E94B00F4C
:101F000080FF04C00E94700F0E948F1708950E94E6
:101F1000730F08950E94FB0B811102C00E94A40C54
:101F20000E94060C80930C020E94100C90933702C2
:101F3000809336020E94870F0E940B0C90E00E9453
:101F4000E6068091AA019091AB010E9407070895CF
:101F500008950E94A80F089508950E94AC0F089557
:101F6000E82FF0E0EE0FFF1FE05CFD4F80819181D4
:101F70000895089580EA8A95F1F7089500C00895BC
:101F80000E94BA0F0895F894E82FE295EF70F0E000
:101F900031A1282F2F7081E090E001C0880F2A9591
:101FA000EAF7982F9095932391A392A1892B82A36E
:101FB00078940895CF93DF9380E30E94C30F81E369
:101FC0000E94C30F82E30E94C30F87E60E94C30FE3
:101FD000C9E7D1E089918F3F11F00E94C30F81E0E2
:101FE000C538D807B9F7DF91CF910895AF92BF9266
:101FF000DF92EF92FF920F931F93CF93DF938C01A9
:10200000D62EC62FD0E0CE018B579E4F7C01FC010F
:1020100020812F3F09F44CC0F894E22FE295EF7035
:10202000F0E031A12F7081E090E001C0880F2A9587
:10203000EAF7932F982B91A392A18095892382A3ED
:1020400078940E94BE0FE9E7F1E041E050E0B12C46
:10205000A12C21912F3FB1F1A22FA295AF70B0E03A
:1020600090968C9190E02F7002C0959587952A9557
:10207000E2F780FD27C0CA01A82AB92A440F551FDC
:1020800081E0E538F80729F7F70180818F3F11F0EB
:102090000E94C30F61E0A114B10409F460E08D2D2A
:1020A0000E94C00FCC0FDD1FC00FD11FB982A882C4
:1020B000DF91CF911F910F91FF90EF90DF90BF9034
:1020C000AF90089590E080E0D7CF0E94DA0F88E0CB
:1020D000E0E4F2E0DF01982F1D929A95E9F7E8E33A
:1020E000F2E0DF011D928A95E9F784E00E94B610C4
:1020F0000E943B020895A8E0B0E0E1E8F0E10C9412
:10210000A21E8E010F5F1F4F88E0F80111928A9581
:10211000E9F7F12C6F2DC8010E94F60FF394F4E05B
:10212000FF12F8CF48E050E0B80188E392E00E9447
:10213000E01E21E0009709F420E0892B41F088E0BF
:10214000F801A8E3B2E001900D928A95E1F744E02E
:1021500060E472E088E392E00E94B710182F0E94BA
:102160003E02812F2896E5E00C94BE1E0895CF9282
:10217000DF92EF92FF921F93CF93DF936C017B016D
:10218000C42F222349F081E080930F020E9444175C
:1021900090930E0280930D0210910F0211110AC04C
:1021A00010E0812FDF91CF911F91FF90EF90DF9092
:1021B000CF90089580910D0290910E020E945C17BD
:1021C000059770F3D0E0CC0FDD1FAE01B601C7015B
:1021D0000E94E01E892B41F0AE01B601C7010E94AA
:1021E000ED1E10920F02DDCF10E0FBCF0E945619BA
:1021F0000E94E30C0E94631908950E9468190E94CE
:10220000EC0C0E94821908950E94DD160E943C1970
:102210000E94C90C0E94F6100E94FD100E94D90C69
:10222000FBCF8091160280FF0DC06091070170E026
:10223000660F771F6038710570F56115710569F1DA
:10224000862F089581FF07C06091070184E0689F91
:10225000B0011124EFCF6091070182FD0AC0809187
:1022600015028823A9F020910601609107018217C9
:1022700010F088E0ECCF869FC001112433E0880F76
:10228000991F3A95E1F7622F70E00E947B1ED2CF32
:1022900068E070E0D5CF8FE7089581E008958091E0
:1022A000160280FF0CC06091030170E07595679580
:1022B000759567956115710549F1862F089581FF20
:1022C00006C06091030170E075956795F3CF60914A
:1022D000030182FD0BC0909114029923A1F060913B
:1022E000020180910301961738F0682F70E0603882
:1022F000710500F38FE70895899FC001112470E0F4
:102300000E947B1EF4CF61E070E0D7CF81E008959A
:102310008D3E31F40E941111819580931A02089527
:102320008E3E19F40E941111F8CF8F3E31F40E94B5
:1023300011118195809319020895803F19F40E942C
:102340001111F8CF893F29F40E944F1180931B028D
:1023500008958A3F21F40E944F118195F7CF8B3F5A
:1023600031F40E944F11819580931C0208958C3F97
:1023700019F40E944F11F8CF9FE0980F983070F435
:10238000815F990B21E030E001C0220F8A95EAF7C6
:1023900080911802822B8093180208958D3F31F4AA
:1023A0008091160281608093160208958E3F21F479
:1023B000809116028260F7CF8F3FB9F780911602A5
:1023C0008460F1CF409119028D3E59F480911A0238
:1023D00087FF0DC010921A0241110BC01092150216
:1023E00008C08E3E81F480911A0218169CF3442393
:1023F00081F080911B0290911C02892B09F05AC038
:102400001092140208958F3E49F447FFF0CF1092C6
:10241000190280911A028111ECCFE0CF803F19F4AC
:102420001416ACF3E4CF90911B02893F29F41916DE
:10243000F4F610921B02DBCF8A3F19F497FFD7CF37
:10244000F8CF90911C028B3F29F497FFD0CF1092C8
:102450001C02CDCF8C3F19F41916CCF3C8CF9FE0E6
:10246000980F983090F4815F990B21E030E0B9012A
:1024700002C0660F771F8A95E2F7CB018095909195
:102480001802892380931802B2CF8D3F31F48091D6
:1024900016028E7F80931602AACF8E3F21F4809180
:1024A00016028D7FF7CF8F3F09F0A1CF80911602E2
:1024B0008B7FF0CF08950E9444179C0190911902E0
:1024C00080911A02982B21F030931302209312026C
:1024D00090911B0280911C02982B21F030931102E5
:1024E0002093100287E192E00E940516089586E08D
:1024F000E7E1F2E0DF011D928A95E9F710921502FB
:1025000010921402109216020895FC01828181112A
:102510000EC0838181110BC08481811108C091E0BC
:102520008581811101C090E0892F8170089581E03B
:10253000FCCFA6E0B0E0EFE9F2E10C94A41E86E047
:10254000E7E1F2E0DE01119601900D928A95E1F744
:102550001092190210921A0210921B0210921C0281
:102560008B819C81892B89F08091120290911302BA
:102570000E945C17AC01909115029923C9F18091DA
:1025800008018417150608F440C08D819E81892BAF
:1025900091F080911002909111020E945C17AC01A1
:1025A00090911402992309F471C080910401841759
:1025B000150608F479C0BE016F5F7F4F87E192E096
:1025C0000E949416811105C087E192E00E94851255
:1025D00081110E945B1286E0FE013196A7E1B2E014
:1025E00001900D928A95E1F72696E3E00C94C01EC7
:1025F000209109018AE0289F9001112424173507B2
:1026000020F69F5F9093150202C09F3FD1F71B8178
:10261000112359F00E9411119FEF11160CF491E053
:10262000899F802D1124809319021C81112359F058
:102630000E9411119FEF11160CF491E0899F802DDB
:10264000112480931A0230911902332309F49DCF8B
:1026500020911A02222309F498CF45EB3403C001DC
:102660001124992359F09093190245EB240390010A
:102670001124332339F030931A0287CF81E08093FD
:102680001902F3CF81E080931A027FCF20910501D8
:102690008AE0289F900111242417350708F08BCF7A
:1026A0009F5F9093140202C09F3FD1F71D811123B9
:1026B00059F00E944F119FEF11160CF491E0899F81
:1026C000802D112480931B021E81112359F00E943A
:1026D0004F119FEF11160CF491E0899F802D11246A
:1026E00080931C0230911B02332309F464CF2091A4
:1026F0001C02222309F45FCF45EB3403C0011124EF
:10270000992359F090931B0245EB24039001112467
:10271000332339F030931C024ECF81E080931B02AB
:10272000F3CF81E080931C0246CFCF93DF93EC017F
:10273000FB018281882309F464C1C430FDE5DF0711
:10274000E0F5CB3F9CE5D90730F49E0122503C4593
:1027500024313105D8F50E94100C909337028093F4
:102760003602C231ECE5DE0709F41FC108F06EC085
:10277000C9308CE5D80709F4F2C008F03FC0C53075
:10278000ECE5DE0709F4DBC058F5C3308CE5D8076B
:1027900009F4CDC008F0CFC0809136028160C2300C
:1027A000DC4509F4AEC080913602909137020E9458
:1027B0001E0C0E94910680E009C0C63AEDE5DE07D6
:1027C00051F238F4C2369DE5D90729F2DF91CF9155
:1027D00008959E012E5A3D4523303105B8F7BBCFF1
:1027E000809136028062C730FCE5DF0709F489C0BA
:1027F00008F4B1C080913602806483C0CD309CE57E
:10280000D90709F4BAC070F4809136028E7FCB30BC
:10281000FCE5DF0709F475C008F4A7C08091360213
:102820008D7F6FC0CF309CE5D90709F4B6C008F49E
:10283000A8C0C031FCE5DF0709F4B3C0C131DC45F5
:1028400009F0B1CF809136028F7B5BC0C1159DE549
:10285000D90709F4B4C098F5CB3FFCE5DF0709F4CC
:1028600072C0B8F4C4319CE5D90709F4B6C008F4C5
:10287000A2C0C531DC4509F096CF8091360282FBBB
:10288000992790F921E0922790FB82F990FB83F938
:1028900038C0CD3F8CE5D80709F477C008F457C09D
:1028A000CE3FECE5DE0709F474C080913702836007
:1028B000CF3FDC4509F077CF8093370274CFC23623
:1028C0008DE5D80709F496C068F4C230EDE5DE075F
:1028D00009F48CC008F477C0C330DD4509F063CF3C
:1028E00080E085C0CE3A9DE5D907E9F068F4909183
:1028F0003602892F8E7F90FF8160C63ADD4509F050
:1029000052CF809336024FCFCF3A8DE5D80789F169
:10291000C03BDD4509F047CF90913702892F877F73
:1029200093FF8860C9CF809137028860C5CF8091BE
:1029300036028260E6CF809136028460E2CF8091D9
:1029400036028860DECF809137028160B5CF8091FA
:1029500037028260B1CF809136028061D2CF0E946F
:102960009106809136028068CCCF809136028C60CF
:10297000C8CF80913702877F9FCF809136028B7FAF
:10298000C0CF80913602877FBCCF809137028E7F87
:1029900093CF809137028D7F8FCF809136028F7ECB
:1029A000B0CF809136028F7DACCF0E94910680918E
:1029B00036028F77A6CF80913602837FA2CF809197
:1029C00037028C7F79CF80913702982F9095917044
:1029D0008E7F892B90FB81F96FCF0E949106909199
:1029E0003602892F97FB87F980588BCF81E00E94B0
:1029F000A70CD9CE90913602892F8F7E94FF8061EB
:102A000080CF81E0E3CECF93DF93EB0186319C450D
:102A100011F50E940D0B9A81992399F08A7A91E021
:102A200009F490E090931D02811109C089E20E948F
:102A3000E50A0E944E0B80E0DF91CF91089585E377
:102A4000F6CF80911D02811104C089E20E94ED0A37
:102A5000F0CF85E3FBCF81E0EFCF0F931F93CF93B0
:102A6000DF93C42FD22FFC0182818823C9F04093C9
:102A700020020E94441790931F0280931E0280E25E
:102A80008C0F883040F4C77081E001C0880FCA9570
:102A9000EAF70E943304DF91CF911F910F910895BF
:102AA00010912002141332C080911E0290911F02D7
:102AB0000E945C17883C910548F5C0E2CD0F1D17B8
:102AC000B9F080E2810F883040F4177081E001C0D6
:102AD000880F1A95EAF70E943A04C83048F481E05A
:102AE0009D2F977001C0880F9A95EAF70E943304D2
:102AF000802F0E942A04C83070F6D77081E001C090
:102B0000880FDA95EAF70E943A04C5CF80E28C0F6D
:102B1000883008F6C77081E001C0880FCA95EAF7CF
:102B2000F2CF0F939C01CB01243F4CE5340759F1C0
:102B3000A8F4293DFCE53F0701F12A3D4CE53407A7
:102B4000D1F1283D3C4591F406E221EE41EE68EDDD
:102B50007CE50E942D1580E00F910895263FFCE54D
:102B60003F07E9F0B0F0273F3C45F9F0FC018281D6
:102B7000882339F110922002EFCF07E225EE45EECF
:102B800069ED7CE5E6CF06E221EE40EE64EF7CE500
:102B9000E0CF07E225EE44EE65EF7CE5DACF06E212
:102BA00021EE42EE66EF7CE5D4CF07E225EE46EE5D
:102BB00067EF7CE5CECF08E221E045EE6AED7CE5EB
:102BC000C8CF81E0C9CF90938B0180938A0108958B
:102BD00090932602809325020895E0912502F091BA
:102BE0002602309729F00190F081E02D0995089593
:102BF00080E00895E0912502F0912602309721F0BF
:102C00000280F381E02D09950895E0912502F0916D
:102C10002602309739F022E0DC012C930480F58104
:102C2000E02D099508952091230230912402281760
:102C3000390771F09093240280932302E0912502DA
:102C4000F0912602309721F00680F781E02D09955A
:102C5000089520912102309122022817390771F03E
:102C60009093220280932102E0912502F0912602A6
:102C7000309721F00084F185E02D099508959C019D
:102C80002E5F3F4FAC01485F5F4F80E02417350750
:102C900009F40895F90191919F019923B9F38F5F88
:102CA000F5CF662349F0FC0132960896219126174C
:102CB00029F0E817F907D1F780E0089581E0089539
:102CC0009C01FC0132969FEF80E04191461751F044
:102CD0009F3F19F4411101C0982F8F5F8630A9F7EB
:102CE0009F3F09F40895290F311D97FD3A95F90189
:102CF00062830895FC01329608962191261303C041
:102D0000DF0111971C92E817F907B9F708950E949F
:102D1000601608950E947A160895029626E0FC0136
:102D200011922A95E9F7089546E050E00E94E01ECE
:102D300021E0892B09F420E0822F089508950E9454
:102D40009E160895811106C081E0809327020E949B
:102D50009F16089582E0F9CF83E0809327020E94B6
:102D60009F1608950E94A216089581E0809327027D
:102D70000E949F1608950E94B5160895089508951B
:102D80000E94BF160895089508950E94BE160895E2
:102D9000CF930E94C3160E947B100E94C416C0E00D
:102DA0008C2F0E94B00F892B31F4CF5FC430C1F754
:102DB00080E0CF91089581E0FCCF85B7806885BF22
:102DC00085B7806885BF08951F921FB61F92112492
:102DD0008F939F93AF93BF9380912802811113C06B
:102DE0008091480290914902A0914A02B0914B0211
:102DF0004196A11DB11D8093480290934902A09372
:102E00004A02B0934B02BF91AF919F918F911F9057
:102E10001FBE1F90189580915002843031F10E949E
:102E2000AE021092280288E190E020E40FB6F894F8
:102E3000A895809360000FBE2093600083B7817FC8
:102E4000846083BF83B7816083BF7894889583B79C
:102E50008E7F83BF0FB6F894A8958091600088613B
:102E600080936000109260000FBE08950E9491064A
:102E70000E94B302089582E084BD93E095BD9AEF6D
:102E800097BD80936E0008952FB7F8948091480203
:102E900090914902A0914A02B0914B022FBF089530
:102EA0002FB7F894609148027091490280914A02CC
:102EB00090914B022FBF08959C014FB7F8948091D9
:102EC000480290914902A0914A02B0914B024FBF33
:102ED000821B930B089578941F921FB61F921124A2
:102EE0008F939F93AF93BF93809148029091490233
:102EF000A0914A02B0914B020196A11DB11D809391
:102F0000480290934902A0934A02B0934B02BF91AA
:102F1000AF919F918F911F901FBE1F90189581E0D8
:102F20008093E00080E28093D8001092C9008FE186
:102F30009EE40197F1F700C0000087E090EBDC0110
:102F40008093590290935A02A0935B02B0935C0263
:102F500088E19CE00FB6F894A895809360000FBEBE
:102F600090936000FFCF88E19CE00FB6F894A8959D
:102F7000809360000FBE90936000FFCF8091340279
:102F8000089508959C0182E08093E9009FEF80916D
:102F9000E800915085FD06C085ED8A95F1F70000A7
:102FA0009111F5CF8091E80085FF0CC050E040E022
:102FB00066E070E0C9010E94F4198091E8008E7704
:102FC0008093E8000895CF93DF93EC0181E0809334
:102FD000E9008FEF9091E800815095FD06C095EDD6
:102FE0009A95F1F700008111F5CF8091E80085FFF7
:102FF00014C050E040E068E070E0CE010E94F41997
:103000008091E8008E778093E80088E0FE01ACE2D2
:10301000B2E001900D928A95E1F7DF91CF9108958A
:103020008093290270932B0260932A0280915002B0
:10303000843001F582E08093E9008FEF9091E80001
:10304000815095FD06C095ED9A95F1F7000081112C
:10305000F5CF8091E80085FF0DC050E040E063E0CF
:1030600070E089E292E00E94F4198091E8008E7786
:103070008093E8000895BC0184E00E941018089530
:10308000BC0183E00E941018089580914F028111C5
:1030900009C00E94841B0E94E11B8091E2008460B1
:1030A0008093E200089510924F0208950E94B51691
:1030B000089560914C0281E0611101C080E00E949E
:1030C000AC1608959091500281E0943009F080E0B0
:1030D00060914C020E94B216089542E061EC81E0DA
:1030E0000E94001B42E261EC82E00E94001B909172
:1030F000500281E0943009F080E060914C020E941F
:10310000A216089580915202833009F461C030F410
:103110008130D1F1823009F49EC008958A3009F4DB
:103120008AC08B3009F46FC0893009F050C080919B
:103130005102813209F04BC08091550290915602A4
:10314000029708F044C08091E800877F8093E800F0
:103150008091E80082FF37C09091F3008091F200E7
:10316000029731F48091F100813011F0863021F422
:103170008091F100809334028091E8008B778093F6
:10318000E8000E94341B23C080915102813AF9F477
:103190008091E800877F8093E800809155029091AC
:1031A0005602892B61F468E08CE292E070E00E94A4
:1031B000431A8091E8008B778093E800089560E0DF
:1031C00090E080E0F3CF809150028111C1CF08954B
:1031D00080915102813AD9F780915502909156021F
:1031E000892BA9F78091E800877F8093E800809180
:1031F000E80080FFFCCF809116018093F100809160
:10320000E8008E77BCCF80915102813201F7809126
:10321000550290915602892BD1F68091E800877F64
:103220008093E8000E94341B809153028093160122
:103230000E949106089580915102813241F6809159
:10324000E800877F8093E8000E94341B809154023D
:1032500080933502089580915102813A09F0B7CFE9
:103260008091E800877F8093E8008091E80080FFEC
:10327000FCCF80913502C1CF84B7877F84BF0FB662
:10328000F894A89580916000886180936000109206
:1032900060000FBE80E890E00FB6F8948093610064
:1032A000909361000FBE0E94BB1608950E94841B7C
:1032B0000E94E11BE2EEF0E08081846080837894DC
:1032C0000E94601E08958AE091E00E94E81508952A
:1032D00080915002853031F480915002853019F090
:1032E0000E94361708950E940B1780914E02882382
:1032F00099F30E94C816882379F30E94DE190E9470
:103300009106EACF08950E9486190895292F332740
:103310002330310519F168F42130310509F444C036
:103320002230310509F445C090E080E030E020E033
:1033300025C02132310549F122323105A9F780E457
:1033400090E024E233E061157105C1F08BE790E075
:1033500029EA32E06130710589F0E6CF99278130A2
:10336000910581F0009729F00297F1F6ECE2F2E086
:1033700002C0E8E5F2E0849190E09F01FA01318318
:1033800020830895E2E4F2E0F6CF89E090E02EE6B3
:1033900032E06115710591F389E090E027E832E0B1
:1033A0006130710559F3C0CF82E190E027E932E046
:1033B000E5CF8BE390E02CE532E0E0CF80E189BD02
:1033C00082E189BD09B400FEFDCF8091D8008F7DD8
:1033D0008093D8008091E00082608093E00080912B
:1033E000E00081FDFCCF0895AF92BF92CF92DF92B3
:1033F000FF920F931F93CF93DF936C01EB018A0130
:103400000E94531BF82E811123C00115110539F0BC
:10341000F80180819181C81BD90BC80ED91EB12C2F
:10342000A12C2097A9F08091E80085FD22C0809111
:10343000E8008E778093E80001151105A1F0F801EE
:1034400080819181A80EB91EB182A08285E0F82EFC
:103450008F2DDF91CF911F910F91FF90DF90CF9033
:10346000BF90AF9008950E94531B8823D1F2F82E8D
:10347000EFCFF60181916F018093F1002197FFEF6B
:10348000AF1ABF0ACECFFC0180915702909158022B
:1034900086179707A0F06115710529F49091E8004F
:1034A0009E779093E80090E06115710551F49111B9
:1034B00008C08091E80082FF34C080E00895BC011C
:1034C000F2CF809150028823C1F18530C1F1809103
:1034D000E80083FD30C08091E80082FDEACF809152
:1034E000E80080FFE1CF8091F3002091F200382FB7
:1034F0006115710519F02830310558F091E0283038
:10350000310509F090E02091E8002E772093E80043
:10351000CBCF81918093F100615071092F5F3F4FB4
:10352000E7CF80915002882341F0853041F08091AF
:10353000E80083FFBECF81E0089582E0089583E034
:103540000895FC01809157029091580286179707C1
:10355000A0F06115710529F48091E8008E778093C1
:10356000E80090E06115710551F4911108C0809157
:10357000E80082FF35C080E00895BC01F2CF809161
:1035800050028823C9F18530C9F18091E80083FD9C
:1035900031C08091E80082FDEACF8091E80080FF91
:1035A000E1CF8091F3002091F200382F6115710571
:1035B00019F02830310558F091E02830310509F034
:1035C00090E08091E8008E778093E800CBCF8491E3
:1035D0008093F1003196615071092F5F3F4FE6CF24
:1035E00080915002882341F0853041F08091E800BD
:1035F00083FFBDCF81E0089582E0089583E00895C0
:10360000982F973028F08F708093E90081E008951B
:103610009093E900242F762F50E0981731F07091A5
:10362000EC002091ED005091F00021FD02C09F5F61
:10363000E8CF3091EB003E7F3093EB003091ED000E
:103640003D7F3093ED003091EB0031603093EB0023
:103650007093EC002093ED005093F0002091EE0069
:1036600027FDE5CF80E008958091510287FF13C0C8
:103670008091E80082FF06C08091E8008B778093FC
:10368000E80004C0809150028111F2CF089580912A
:1036900050028823D9F38091E80080FFF8CF809111
:1036A000E8008E77ECCF2091E4003091E50095E6BC
:1036B000A9012091EC00822F817020FF06C080912B
:1036C000E80080FF06C080E008952091E80022FD18
:1036D0001AC080915002882389F0853089F080914A
:1036E000EB0085FD0FC02091E4003091E50042170A
:1036F0005307F9F29150E1F684E0089582E00895CD
:1037000083E0089581E008950E94F31B0E94FB1B53
:10371000E0EEF0E0808181608083E8EDF0E0808180
:103720008F77808319BCA7EDB0E08C918E7F8C934E
:1037300080818F7E808310924F0208950F931F9394
:10374000CF93DF930E94F31B0E94FB1BC8EDD0E0D8
:1037500088818F77888388818068888388818F7D3E
:10376000888319BC1092500210924C0210924E02A3
:1037700010924D0200EE10E0F80180818B7F808373
:1037800088818160888342E060E080E00E94001BC5
:10379000E1EEF0E080818E7F8083E2EEF0E08081D8
:1037A00081608083808188608083F80180818E7F42
:1037B0008083888180618883DF91CF911F910F91F1
:1037C0000895E8EDF0E080818F7E8083E7EDF0E002
:1037D00080818160808384E082BF81E080934F029A
:1037E0000E949E1B0895E8EDF0E080818E7F80832B
:1037F0001092E20008951092DA001092E10008950C
:103800001F920F920FB60F9211242F933F934F9355
:103810005F936F937F938F939F93AF93BF93EF9338
:10382000FF938091E10082FF0BC08091E20082FF54
:1038300007C08091E1008B7F8093E1000E945F1EB2
:103840008091DA0080FF19C08091D80080FF15C0F8
:103850008091DA008E7F8093DA008091D90080FF1A
:1038600096C080E189BD82E189BD09B400FEFDCF2B
:1038700081E0809350020E9445188091E10080FF12
:1038800019C08091E20080FF15C08091E2008E7F18
:103890008093E2008091E20080618093E200809159
:1038A000D80080628093D80019BC85E080935002D4
:1038B0000E9459188091E10084FF2BC08091E200A2
:1038C00084FF27C080E189BD82E189BD89B5982F39
:1038D000917080FFFBCF8091D8008F7D8093D800BE
:1038E0008091E1008F7E8093E1008091E2008F7EE5
:1038F0008093E2008091E20081608093E2008091F9
:103900004C02882309F449C084E0809350020E944D
:1039100062188091E10083FF29C08091E20083FF5B
:1039200025C08091E100877F8093E10082E0809351
:10393000500210924C028091E1008E7F8093E10052
:103940008091E2008E7F8093E2008091E2008061AE
:103950008093E20042E060E080E00E94001B8091E2
:10396000F00088608093F0000E945618FF91EF915C
:10397000BF91AF919F918F917F916F915F914F9187
:103980003F912F910F900FBE0F901F90189519BC6B
:10399000109250020E94531870CF8091E30087FD6F
:1039A00093E090935002B3CF1F920F920FB60F92F5
:1039B00011242F933F934F935F936F937F938F9334
:1039C0009F93AF93BF93CF93DF93EF93FF93D091E8
:1039D000E900DF708091EC00C82FC17080FDC0E865
:1039E0001092E9008091F000877F8093F000789436
:1039F0000E94181D1092E9008091F0008860809369
:103A0000F000CD2BCF70C093E900FF91EF91DF91D3
:103A1000CF91BF91AF919F918F917F916F915F9166
:103A20004F913F912F910F900FBE0F901F901895BF
:103A3000AAE2B0E0EEE1FDE10C94A41E81E592E083
:103A40002091F100FC012193CF01F2E089359F071D
:103A5000B9F70E9482188091E80083FF1EC180910F
:103A60005102909152029A3008F017C1E92FF0E00C
:103A7000EA5BF04E0C948F1E803899F0823809F082
:103A80000CC1809155028F70873008F006C1809379
:103A9000E9008091EB0085FB882780F91092E9000E
:103AA00006C080914D0290914E02911182609091DA
:103AB000E800977F9093E8008093F1001092F10066
:103AC0008091E8008E77E5C0882309F4D3C0823066
:103AD00009F0E3C0809153028111D6C08091550254
:103AE0008F702FEF280F263008F0D7C08093E900A1
:103AF0002091EB0020FFC8C0933031F48091EB009F
:103B000080628093EB00C0C09091EB009061909335
:103B1000EB0021E030E001C0220F8A95EAF7209304
:103B2000EA001092EA008091EB008860EACF8111F0
:103B3000B4C0109153021F778091E3008078812BED
:103B40008093E3008091E800877F8093E8000E94E3
:103B5000341B8091E80080FFFCCF8091E3008068F7
:103B60008093E30082E0111183E08093500295C0BE
:103B70008058823008F091C0809153029091540295
:103B80008C3D23E09207A1F583E08A838AE2898352
:103B90004FB7F894DE01139620E03EE051E2E32FA8
:103BA000F0E050935700E49120FF03C0E295EF70DE
:103BB0003F5FEF708E2F90E0EA30C0F0C7968D9394
:103BC0009D932F5F243159F74FBF8091E800877F85
:103BD0008093E8006AE270E0CE0101960E94431AE9
:103BE0008091E8008B778093E80057C0C096E7CFBC
:103BF0006091550270915602AE014F5F5F4F0E9477
:103C00008319BC01892B09F448C09091E800977F83
:103C10009093E80089819A810E94A11AE1CF8038AF
:103C2000E1F58091E800877F8093E80080914C0265
:103C30008093F10045CF811130C0909153029230B2
:103C400060F58091E800877F8093E80090934C02B4
:103C50000E94341B80914C02882311F084E005C03F
:103C60008091E30087FDFACF81E0809350020E94AB
:103C70006D1813C080915302813079F481E0933044
:103C800009F080E080934E021092E9008091E800F4
:103C9000877F8093E8000E94341B8091E80083FFB7
:103CA0000AC08091E800877F8093E8008091EB0054
:103CB00080628093EB00AA96E3E00C94C01E089506
:103CC000CF93809150028823A1F0C091E900CF707A
:103CD0009091EC00892F817090FD80E8C82B1092A4
:103CE000E9008091E80083FD0E94181DCF70C09309
:103CF000E900CF91089597FB072E16F4009407D0A2
:103D000077FD09D00E94CC1E07FC05D03EF49095AB
:103D100081959F4F0895709561957F4F0895EE0F9F
:103D2000FF1F0590F491E02D09942F923F924F923E
:103D30005F926F927F928F929F92AF92BF92CF923B
:103D4000DF92EF92FF920F931F93CF93DF93CDB744
:103D5000DEB7CA1BDB0B0FB6F894DEBF0FBECDBFBC
:103D600009942A88398848885F846E847D848C848D
:103D70009B84AA84B984C884DF80EE80FD800C8196
:103D80001B81AA81B981CE0FD11D0FB6F894DEBF79
:103D90000FBECDBFED010895AA1BBB1B51E107C0AB
:103DA000AA1FBB1FA617B70710F0A61BB70B881FCB
:103DB000991F5A95A9F780959095BC01CD0108955A
:103DC000FB01DC0104C08D910190801921F4415068
:103DD0005040C8F7881B990B0895FB01DC0102C015
:103DE00001900D9241505040D8F70895F999FECFB7
:103DF00092BD81BDF89A992780B50895A8E1B0E0F9
:103E000042E050E00C942A1F262FF999FECF92BD74
:103E100081BDF89A019700B4021639F01FBA20BD8F
:103E20000FB6F894FA9AF99A0FBE08950396272FC1
:103E30000E94051F0E94041F252F0E94051F242F8A
:103E40000C94051F0196272F0E94051F0C94041F38
:103E5000DC01CB01FC01F999FECF06C0F2BDE1BD4A
:103E6000F89A319600B40D9241505040B8F7089539
:103E7000F894FFCF7C047C04AD04AD043A055605EC
:103E8000DC04DC046105D205E105E1053C1D641D8F
:103E90004D1E641D4D1E971DB81D4D1E0F1E1B1E71
:103EA000F001280850011E0A1401BE17E317C217BB
:103EB00040183B18C11701E200E900EA00B500B65E
:103EC00000B700CD008301CC008A0192019401214A
:103ED00002230224022502260227022A02B300B48A
:103EE000006F007000818283E200E900EA00B50003
:103EF000B600B700CD008301CC008A019201940185
:103F00002102230224022502260227022A02B300EC
:103F1000B4006F007000818283F0F1F4F5F6F7666B
:0A3F200036353497963031326700D1
:00000001FF
